:100000000C9428010C9459010C9459010C94590139
:100010000C9459010C9459010C9459010C945901F8
:100020000C9459010C9459010C9459010C945901E8
:100030000C9459010C9459010C9459010C945901D8
:100040000C9459010C9459010C9459010C945901C8
:100050000C9459010C9459010C9459010C944C03C3
:100060000C9459010C94C0030C9496030C94590100
:100070000C9459010C9459010C9459010C94590198
:100080000C9459010C9459010C9459010C94590188
:100090000C9459010C9459010C9459010C94590178
:1000A0000C9459010C9459010C9459010C94590168
:1000B0000C9459010C9459010C9459010C94590158
:1000C0000C9459010C9459010C9459010C94590148
:1000D0000C9459010C9459010C9459010C94590138
:1000E0000C9459010C9445020C94BB010C94B7017B
:1000F0000C94E1010C94A2010C94D3010C94D7014F
:100100000C948B010C9490010C94C1010C94760218
:100110000C9458050C9468020C94C5010C94C90108
:100120000C94B1010C94FB020C94AA010C94CF0125
:100130000C9454020C94AE010C94AE020C94DD01AC
:100140000C9418020C94A601000021002400270042
:100150002A002D00300033000101000004010701D6
:100160000A0100002200250028002B002E0031008B
:10017000340002010000050108010B010505050519
:10018000070508080808020202020A0A080804040F
:10019000040401010101010101010303030303033D
:1001A0000303040707070C0C0C0C0C0C0C0C0202CC
:1001B000020206060606060606060B0B0B0B0B0BC9
:1001C0000B0B010210202008081020401020408056
:1001D000020102010804020101020408102040800B
:1001E0008040201008040201800402018040201099
:1001F00008040201080402010102040810204080E2
:10020000010204081020408000000A0B02090C0DB6
:100210000E080703040100000000000000000000B9
:1002200000000000000000000000000000000000CE
:10023000000000001211100000000000000000008B
:100240000000000000000000000000000000580551
:1002500011241FBECFEFD1E2DEBFCDBF00E00CBF47
:1002600012E0A0E0B2E0E4ECFDE000E00BBF02C071
:1002700007900D92A831B107D9F722E0A8E1B2E0CA
:1002800001C01D92AE3BB207E1F711E0C8E2D1E038
:1002900000E006C021970109802FFE010E94A705FA
:1002A000C732D10780E00807A9F70E94F6030C9433
:1002B000E0060C940000282F30E0F901E85FFD4FC4
:1002C0009491F901EE53FE4F449124583E4FF901A9
:1002D0002491222309F435C0992311F191509231D0
:1002E000F8F4E92FF0E08827E758FE4F8F4F0C9481
:1002F000A705AA01AE018B01A201A6019001B101DF
:10030000B701BB01C101C501C901CF01D3019001F2
:10031000D701DD01E101809180008F77809380001B
:10032000E22FF0E0EE0FFF1FEE59FE4FA591B491C2
:100330008FB7F894EC91611148C040954E234C93CF
:100340008FBF0895809180008F7DE8CF80918000DD
:10035000877FE4CF84B58F7784BDE2CF84B58F7D6E
:10036000FBCF8091B0008F778093B000D9CF809180
:10037000B0008F7DF9CF809190008F7780939000AF
:10038000CFCF809190008F7DF9CF80919000877FB3
:10039000F5CF8091A0008F778093A000C1CF80918E
:1003A000A0008F7DF9CF8091A000877FF5CF80914D
:1003B00020018F7780932001B3CF809120018F7D22
:1003C000F9CF80912001877FF5CF4E2BB8CFCF9307
:1003D000DF9390E0FC01EE53FE4F249184589E4F32
:1003E000FC0184918823D1F090E0880F991FFC01D3
:1003F000E85BFE4FA591B491FC01EE59FE4FC5910B
:10040000D49161110EC09FB7F8948C91E22FE095C2
:100410008E238C932881E223E8839FBFDF91CF91C5
:1004200008958FB7F894EC91E22BEC938FBFF6CF41
:10043000AF92BF92CF92DF92EF92FF920F931F93F2
:10044000CF93DF936C017B018B01040F151FEB0130
:100450005E01AE18BF08C017D10759F06991D601E7
:10046000ED91FC910190F081E02DC6011995892B49
:1004700079F7C501DF91CF911F910F91FF90EF9018
:10048000DF90CF90BF90AF900895FC01538D448DC5
:10049000252F30E0842F90E0821B930B541710F02F
:1004A000CF96089501970895FC01918D828D98173C
:1004B00061F0A28DAE0FBF2FB11D5D968C91928D14
:1004C0009F5F9F73928F90E008958FEF9FEF089545
:1004D000FC01918D828D981731F0828DE80FF11D0E
:1004E000858D90E008958FEF9FEF0895FC01918D29
:1004F000228D892F90E0805C9F4F821B91098F7322
:100500009927089588E192E00E94760221E0892BE4
:1005100009F420E0822F0895FC01A48DA80FB92FC3
:10052000B11DA35ABF4F2C91848D90E001968F731B
:100530009927848FA689B7892C93A089B1898C913A
:10054000837080648C93938D848D981306C0028889
:10055000F389E02D80818F7D80830895EF92FF9253
:100560000F931F93CF93DF93EC0181E0888F9B8DD6
:100570008C8D98131AC0E889F989808185FF15C090
:100580009FB7F894EE89FF896083E889F9898081B3
:100590008370806480839FBF81E090E0DF91CF9182
:1005A0001F910F91FF90EF900895F62E0B8D10E0A4
:1005B0000F5F1F4F0F731127E02E8C8D8E110CC013
:1005C0000FB607FCFACFE889F989808185FFF5CF5E
:1005D000CE010E948C02F1CFEB8DEC0FFD2FF11DAF
:1005E000E35AFF4FF0829FB7F8940B8FEA89FB899B
:1005F00080818062CFCFCF93DF93EC01888D8823F9
:10060000B9F0AA89BB89E889F9898C9185FD03C075
:10061000808186FD0DC00FB607FCF7CF8C9185FF5A
:10062000F2CF808185FFEDCFCE010E948C02E9CF11
:10063000DF91CF91089580E090E0892B29F00E940E
:10064000820281110E94000080E090E0892B49F035
:1006500080E090E0892B29F00E94000081110E9427
:10066000000080E090E0892B49F080E090E0892B49
:1006700029F00E94000081110E94000080E090E0BB
:10068000892B49F080E090E0892B29F00E9400003E
:1006900081110C94000008951F920F920FB60F92D3
:1006A00011242F933F938F939F93AF93BF93809188
:1006B000BA029091BB02A091BC02B091BD023091F0
:1006C000B90223E0230F2D3758F50196A11DB11D66
:1006D0002093B9028093BA029093BB02A093BC020C
:1006E000B093BD028091B5029091B602A091B7027D
:1006F000B091B8020196A11DB11D8093B5029093EF
:10070000B602A093B702B093B802BF91AF919F9188
:100710008F913F912F910F900FBE0F901F901895C2
:1007200026E8230F0296A11DB11DD2CF1F920F9272
:100730000FB60F9211240BB60F922F933F934F9346
:100740005F936F937F938F939F93AF93BF93EF9339
:10075000FF9388E192E00E948C02FF91EF91BF919C
:10076000AF919F918F917F916F915F914F913F9149
:100770002F910F900BBE0F900FBE0F901F901895EA
:100780001F920F920FB60F9211240BB60F922F9358
:100790008F939F93EF93FF93E0912802F0912902AA
:1007A0008081E0912E02F0912F0282FD1DC0908188
:1007B000809131028F5F8F7320913202821741F056
:1007C000E0913102F0E0E85EFD4F958F80933102B9
:1007D000FF91EF919F918F912F910F900BBE0F90F2
:1007E0000FBE0F901F9018958081F2CFCF93DF93AB
:1007F000CDB7DEB7A1970FB6F894DEBF0FBECDBF61
:10080000789484B5826084BD84B5816084BD85B5EB
:10081000826085BD85B5816085BD80916E008160F7
:1008200080936E001092810080918100826080939D
:10083000810080918100816080938100809180009F
:100840008160809380008091B10084608093B100CA
:100850008091B00081608093B000809191008260AF
:1008600080939100809191008160809391008091AC
:1008700090008160809390008091A10082608093BD
:10088000A1008091A10081608093A1008091A000CF
:1008900081608093A000809121018260809321017A
:1008A00080912101816080932101809120018160EC
:1008B0008093200180917A00846080937A008091F7
:1008C0007A00826080937A0080917A0081608093C0
:1008D0007A0080917A00806880937A001092C1003B
:1008E000E0912802F091290282E08083E0912402C5
:1008F000F09125021082E0912602F091270280E11A
:10090000808310923002E0912C02F0912D0286E05B
:100910008083E0912A02F0912B02808180618083A4
:10092000E0912A02F0912B02808188608083E0911F
:100930002A02F0912B02808180688083E0912A0254
:10094000F0912B0280818F7D808361E085E00E94A1
:10095000E70161E082E00E94E70160E086E30E9437
:10096000E70110E44AE0842E912CA12CB12C809157
:100970007B00877F80937B0010937C0080917A00BE
:10098000806480937A0080917A0086FDFCCF80910C
:10099000780060917900762F682F072E000C880B65
:1009A000990B0E94E7052CEE3EEA4BE350E40E94CF
:1009B0004B060E94AF0570930102609300026B0129
:1009C000770FEE08FF08F7FE5DC06DE288E192E068
:1009D0000E94AE0222273327A9012C193D094E0996
:1009E0005F0919A2CE0181967C01CA01B901A50156
:1009F00094010E948505605DF70162937F012115D6
:100A000031054105510589F7E114F10461F00190C8
:100A10000020E9F73197AF014E195F09B70188E16E
:100A200092E00E94180242E050E064E172E088E146
:100A300092E00E94180261E085E00E945B01E09074
:100A40000002F0900102F2E0EF16F10440F0C7015D
:100A5000880F991F880F991F05970197F1F760E09C
:100A600085E00E945B0182E0E816F10440F0C701D6
:100A7000880F991F880F991F05970197F1F70E941A
:100A80001B0375CFA701960119A2CE0181967C01A7
:100A9000CA01B901A50194010E948505605DF701B5
:100AA00062937F01211531054105510589F7ACCFCE
:100AB000E8E1F2E01382128288EE93E0A0E0B0E079
:100AC00084839583A683B78386E092E091838083B5
:100AD00085EC90E09587848784EC90E09787868703
:100AE00080EC90E0918B808B81EC90E0938B828BFB
:100AF00082EC90E0958B848B86EC90E0978B868BD4
:100B0000118E128E138E148E0895A1E21A2EAA1B36
:100B1000BB1BFD010DC0AA1FBB1FEE1FFF1FA217AD
:100B2000B307E407F50720F0A21BB30BE40BF50BAA
:100B3000661F771F881F991F1A9469F76095709533
:100B4000809590959B01AC01BD01CF010895EE0FFA
:100B5000FF1F881F8BBF0790F691E02D19940E940C
:100B6000B6056894B1110C94450608950E942A06B2
:100B700088F09F5798F0B92F9927B751B0F0E1F05E
:100B8000660F771F881F991F1AF0BA95C9F714C00E
:100B9000B13091F00E944406B1E008950C944406EF
:100BA000672F782F8827B85F39F0B93FCCF3869547
:100BB00077956795B395D9F73EF4909580957095A4
:100BC00061957F4F8F4F9F4F0895E89409C097FB21
:100BD0003EF490958095709561957F4F8F4F9F4F14
:100BE0009923A9F0F92F96E9BB279395F695879558
:100BF00077956795B795F111F8CFFAF4BB0F11F41B
:100C000060FF1BC06F5F7F4F8F4F9F4F16C08823C1
:100C100011F096E911C0772321F09EE8872F762FF7
:100C200005C0662371F096E8862F70E060E02AF038
:100C30009A95660F771F881FDAF7880F9695879524
:100C400097F9089557FD9058440F551F59F05F3F8D
:100C500071F04795880F97FB991F61F09F3F79F0DE
:100C600087950895121613061406551FF2CF469560
:100C7000F1DF08C0161617061806991FF1CF8695E2
:100C80007105610508940895E894BB2766277727C6
:100C9000CB0197F908950E945E060C94CF060E943E
:100CA000C10638F00E94C80620F0952311F00C947C
:100CB000B8060C94BE0611240C9445060E94220628
:100CC00070F3959FC1F3950F50E0551F629FF0019F
:100CD000729FBB27F00DB11D639FAA27F00DB11DB8
:100CE000AA1F649F6627B00DA11D661F829F222741
:100CF000B00DA11D621F739FB00DA11D621F839FC8
:100D0000A00D611D221F749F3327A00D611D231F9D
:100D1000849F600D211D822F762F6A2F11249F57EB
:100D200050409AF0F1F088234AF0EE0FFF1FBB1FEE
:100D3000661F771F881F91505040A9F79E3F5105AD
:100D400080F00C94B8060C9445065F3FE4F3983E9F
:100D5000D4F3869577956795B795F795E7959F5F57
:100D6000C1F7FE2B880F911D9695879597F90895E9
:100D700097F99F6780E870E060E008959FEF80EC4E
:100D8000089500240A9416161706180609060895F1
:100D900000240A9412161306140605060895092E57
:100DA0000394000C11F4882352F0BB0F40F4BF2BC6
:100DB00011F460FF04C06F5F7F4F8F4F9F4F089506
:040DC000F894FFCFD5
:100DC400F40100000000AE0218024502FB027602A4
:080DD400540268020D0A000040
:00000001FF
