:100000000C942B010C945C010C945C010C945C012D
:100010000C945C010C945C010C945C010C945C01EC
:100020000C945C010C945C010C945C010C945C01DC
:100030000C945C010C945C010C945C010C945C01CC
:100040000C945C010C945A050C945C010C945C01BA
:100050000C945C010C945C010C945C010C9477048E
:100060000C945C010C94EB040C94C1040C945C01A2
:100070000C945C010C945C010C945C010C945C018C
:100080000C9421050C945C010C945C010C945C01B3
:100090000C945C010C945C010C945C010C945C016C
:1000A0000C945C010C945C010C945C010C945C015C
:1000B0000C945C010C945C010C945C010C945C014C
:1000C0000C945C010C945C010C945C010C945C013C
:1000D0000C945C010C945C010C945C010C945C012C
:1000E0000C945C010C94D3010C94D9010C94E002A3
:1000F0000C94F1010C94DD010C940A020C942D0374
:100100000C9437020C9403020C94E7010C94F9014F
:100110000C94B2010C9478070C94A8020C94F5018D
:100120000C94EB010C9446020C94CC010C94AD01A0
:100130000C94C8010C94FF010C94D0010C9493050D
:100140000C94E3010C94C4010C949A0200000A0B75
:1001500002090C0D0E080703040100000000000056
:10016000000000000000000000000000000000008F
:10017000000000000000000012111000000000004C
:10018000000000000000000000000000000000006F
:10019000000000002200250028002B002E00310066
:1001A000340002010000050108010B0100002100DC
:1001B000240027002A002D00300033000101000038
:1001C000040107010A0105050505070508080808D7
:1001D000020202020A0A08080404040401010101DF
:1001E00001010101030303030303030304070707DA
:1001F0000C0C0C0C0C0C0C0C02020202060606067F
:10020000060606060B0B0B0B0B0B0B0B010210204B
:10021000200808102040102040800201020108043C
:1002200002010102040810204080804020100804D0
:100230000201800402018040201008040201080429
:10024000020101020408102040800102040810206D
:1002500040809305780711241FBECFEFD1E2DEBFA7
:10026000CDBF00E00CBF22E0AEE1B2E001C01D92C4
:10027000A63DB207E1F712E0A0E0B2E0E0E7F4E16A
:1002800000E00BBF02C007900D92AE31B107D9F765
:1002900011E0CAE2D1E000E006C021970109802FF9
:1002A000FE010E94DB07C932D10780E00807A9F7E9
:1002B0000E94D5050C94260A0C94000090E0FC01E5
:1002C000E45FFD4F24918A539E4FFC018491882363
:1002D00099F090E0880F991FFC01E455FE4FA5911D
:1002E000B491FC01EE56FE4F859194918FB7F8942E
:1002F000EC91E22BEC938FBF0895282F30E0F901A9
:10030000E45BFE4F9491F901E45FFD4F44912A5361
:100310003E4FF9012491222309F435C0992311F1AC
:1003200091509231F8F4E92FF0E08827E556FE4F1E
:100330008F4F0C94DB07CC01D001AD01C401C80183
:10034000B201D301D901DD01E301E701EB01F101C4
:10035000F501B201F901FF010302809180008F775E
:1003600080938000E22FF0E0EE0FFF1FEE56FE4F6D
:10037000A591B4918FB7F894EC91611148C0409564
:100380004E234C938FBF0895809180008F7DE8CFDE
:1003900080918000877FE4CF84B58F7784BDE2CFE2
:1003A00084B58F7DFBCF8091B0008F778093B000B4
:1003B000D9CF8091B0008F7DF9CF809190008F7759
:1003C00080939000CFCF809190008F7DF9CF809166
:1003D0009000877FF5CF8091A0008F778093A00059
:1003E000C1CF8091A0008F7DF9CF8091A000877F41
:1003F000F5CF809120018F7780932001B3CF80913A
:1004000020018F7DF9CF80912001877FF5CF4E2B82
:10041000B8CF0895AF92BF92CF92DF92EF92FF9242
:100420000F931F93CF93DF936C017B018B01040F1C
:10043000151FEB015E01AE18BF08C017D10759F0B8
:100440006991D601ED91FC910190F081E02DC601FA
:100450001995892B79F7C501DF91CF911F910F91E4
:10046000FF90EF90DF90CF90BF90AF900895FC0188
:10047000538D448D252F30E0842F90E0821B930B09
:10048000541710F0CF96089501970895FC01918DAF
:10049000828D981761F0A28DAE0FBF2FB11D5D96B2
:1004A0008C91928D9F5F9F73928F90E008958FEF54
:1004B0009FEF08952FB7F89480912502909126021E
:1004C000A0912702B09128022FBF80933102909310
:1004D0003202A0933302B093340289E292E00E9488
:1004E000460297FF26C02FB7F8948091250290917D
:1004F0002602A0912702B09128022FBF409131021D
:10050000509132026091330270913402841B950B3A
:10051000A60BB70B40912D0250912E0260912F0235
:100520007091300284179507A607B707B0F28FEFD6
:100530009FEF0895FC01918D828D981731F0828D87
:10054000E80FF11D858D90E008958FEF9FEF0895DE
:10055000FC01918D228D892F90E0805C9F4F821B42
:1005600091098F739927089589E292E00E94A80269
:1005700021E0892B09F420E0822F0895FC01A48D4D
:10058000A80FB92FB11DA35ABF4F2C91848D90E0B5
:1005900001968F739927848FA689B7892C93A08998
:1005A000B1898C91837080648C93938D848D981322
:1005B00006C00288F389E02D80818F7D80830895B5
:1005C000EF92FF920F931F93CF93DF93EC0181E0A3
:1005D000888F9B8D8C8D98131AC0E889F98980814A
:1005E00085FF15C09FB7F894EE89FF896083E8897D
:1005F000F98980818370806480839FBF81E090E06F
:10060000DF91CF911F910F91FF90EF900895F62EFB
:100610000B8D10E00F5F1F4F0F731127E02E8C8D95
:100620008E110CC00FB607FCFACFE889F9898081DA
:1006300085FFF5CFCE010E94BE02F1CFEB8DEC0F0E
:10064000FD2FF11DE35AFF4FF0829FB7F8940B8FF7
:10065000EA89FB8980818062CFCFCF93DF93EC0161
:10066000888D8823B9F0AA89BB89E889F9898C919A
:1006700085FD03C0808186FD0DC00FB607FCF7CF56
:100680008C9185FFF2CF808185FFEDCFCE010E9456
:10069000BE02E9CFDF91CF91089580E090E0892BF1
:1006A00029F00E94B40281110E94000080E090E0D5
:1006B000892B49F080E090E0892B29F00E9400000E
:1006C00081110E94000080E090E0892B49F080E0D9
:1006D00090E0892B29F00E94000081110E94000007
:1006E00080E090E0892B49F080E090E0892B29F0B0
:1006F0000E94000081110C94000008950F931F9335
:10070000CF93DF938C01EB01FC01808191810097F5
:10071000E1F06881798161157105A9F04281538109
:100720002C813D814217530770F00E941F0A8C8173
:100730009D81F801958384831D821C82DF91CF9176
:100740001F910F9108950E94A10888819981F80155
:10075000918380838A819B81938382838C819D8115
:1007600095838483198218821B821A82E5CFCF93E6
:10077000DF93EC0188819981009711F00E94A10814
:10078000198218821D821C821B821A82DF91CF91EE
:100790000895FC0180819181009711F00C94A108CB
:1007A00008950F931F93CF93DF93EC018881998174
:1007B000009759F02A813B812617370730F081E0F6
:1007C000DF91CF911F910F9108958B016F5F7F4F44
:1007D0000E942A09009759F0998388831B830A8312
:1007E0002C813D81232B59F7FC011082E8CF80E05A
:1007F000E7CFCF93DF93EC0170E060E00E94D1037C
:10080000811105C0CE01DF91CF910C94B7031D82F9
:100810001C826CE172E088819981DF91CF910C9408
:100820001F0A9F92AF92BF92CF92DF92EF92FF92F8
:100830000F931F93CF93DF93EC016B015A01790162
:100840002417350720F48B2D5901E42EF82E198238
:1008500018821B821A821D821C82CE010E94F9031B
:10086000D60114960D911C91A016B10658F5E0160C
:10087000F10608F48701D601ED91FC911197E00F84
:10088000F11F90801082ED90FC90EA0CFB1CE114AB
:10089000F10471F0F70101900020E9F731975F0151
:1008A000AE18BF08B501CE010E94D103811117C057
:1008B000CE010E94B703F60180819181080F191FB4
:1008C000D8019C92CE01DF91CF911F910F91FF90A3
:1008D000EF90DF90CF90BF90AF909F900895BD8232
:1008E000AC82B701888199810E941F0AE4CF1F92D0
:1008F0000F920FB60F9211242F933F938F939F93D4
:10090000AF93BF938091250290912602A091270278
:10091000B09128023091240223E0230F2D3758F59F
:100920000196A11DB11D209324028093250290936E
:100930002602A0932702B093280280912002909172
:100940002102A0912202B09123020196A11DB11DA6
:100950008093200290932102A0932202B09323025D
:10096000BF91AF919F918F913F912F910F900FBEAB
:100970000F901F90189526E8230F0296A11DB11D18
:10098000D2CF1F920F920FB60F9211240BB60F9277
:100990002F933F934F935F936F937F938F939F9387
:1009A000AF93BF93EF93FF9389E292E00E94BE0260
:1009B000FF91EF91BF91AF919F918F917F916F9137
:1009C0005F914F913F912F910F900BBE0F900FBEF3
:1009D0000F901F9018951F920F920FB60F9211242F
:1009E0000BB60F922F938F939F93EF93FF93E0910A
:1009F0003902F0913A028081E0913F02F091400289
:100A000082FD1DC09081809142028F5F8F73209183
:100A10004302821741F0E0914202F0E0E75DFD4FB2
:100A2000958F80934202FF91EF919F918F912F912B
:100A30000F900BBE0F900FBE0F901F9018958081E6
:100A4000F2CF1F920F920FB60F9211240BB60F9296
:100A50002F933F934F935F936F937F938F939F93C6
:100A6000AF93BF93EF93FF9380911F0291E089278B
:100A700080931F0260911F0285E00E947D0180919A
:100A80000002909101029093990080939800FF9149
:100A9000EF91BF91AF919F918F917F916F915F91F6
:100AA0004F913F912F910F900BBE0F900FBE0F9063
:100AB0001F9018951F920F920FB60F9211240BB62C
:100AC0000F922F933F934F935F936F937F938F93E7
:100AD0009F93AF93BF93EF93FF9380911E0291E09A
:100AE000892780931E0260911E0289E00E947D0189
:100AF0008091020290910302909389008093880074
:100B0000FF91EF91BF91AF919F918F917F916F91E5
:100B10005F914F913F912F910F900BBE0F900FBEA1
:100B20000F901F901895E9E2F2E01382128288EE8E
:100B300093E0A0E0B0E084839583A683B7838EE042
:100B400092E09183808385EC90E09587848784ECA4
:100B500090E09787868780EC90E0918B808B81EC8A
:100B600090E0938B828B82EC90E0958B848B86EC6B
:100B700090E0978B868B118E128E138E148EECEC78
:100B8000F2E0118210821382128215821482CF0148
:100B90000E94F903E6ECF2E01182108213821282C5
:100BA00015821482CF010C94F903CF93DF93CDB754
:100BB000DEB72C970FB6F894DEBF0FBECDBF78948A
:100BC00084B5826084BD84B5816084BD85B5826052
:100BD00085BD85B5816085BD80916E008160809303
:100BE0006E0010928100809181008260809381006C
:100BF000809181008160809381008091800081607C
:100C0000809380008091B10084608093B1008091D6
:100C1000B00081608093B0008091910082608093E9
:100C2000910080919100816080939100809190006B
:100C30008160809390008091A10082608093A100E8
:100C40008091A10081608093A1008091A0008160CB
:100C50008093A00080912101826080932101809186
:100C60002101816080932101809120018160809326
:100C7000200180917A00846080937A0080917A00CC
:100C8000826080937A0080917A00816080937A00FC
:100C900080917A00806880937A001092C100E09180
:100CA0003902F0913A0282E08083E0913502F091BE
:100CB00036021082E0913702F091380288E080839A
:100CC00010924102E0913D02F0913E0286E0808365
:100CD000E0913B02F0913C02808180618083E09151
:100CE0003B02F0913C02808188608083E0913B026E
:100CF000F0913C02808180688083E0913B02F0911A
:100D00003C0280818F7D808389E00E945E0185E0C6
:100D10000E945E0183E00E945E0161E083E00E9428
:100D20007D01F894109280009AE09093810024EF66
:100D300031E0309389002093880080916F008260B9
:100D400080936F00109290009093910030939900DF
:100D50002093980080917100826080937100789454
:100D600020E4822E22E4922E2FE0A22EB12C89E2E2
:100D700092E00E94A802181619060CF0B6C0188658
:100D80001F821A8619861C861B86CE0107960E9432
:100D9000F9030E945A020B851C8597FD1CC08A30FE
:100DA0009105C9F089831A820F5F1F4FB801CE01E8
:100DB00007960E94D103882361F32F8138858B85A4
:100DC0009C85BE016F5F7F4F820F931F0E941F0A99
:100DD0001C870B87DECF012BE1F10F8118856CE2B8
:100DE00070E0C8010E94140A009799F19C01201B31
:100DF000310B89010F3F100761F1980150E040E08D
:100E0000BE01695F7F4FCE0101960E941104BE01B1
:100E10006F5F7F4F8CEC92E00E947E03CE010196C3
:100E20000E94C9032B853C85A8014F5F5F4FBE011F
:100E3000695F7F4FCE0101960E941104BE016F5F72
:100E40007F4F86EC92E00E947E03CE0101960E94C5
:100E5000C9038091CC029091CD02412C512C3201DA
:100E6000009719F00E9480072B018091C602909193
:100E7000C702C12CD12C7601009719F00E9480077F
:100E80006B01C201865991098B33974090F4F89415
:100E9000440C551C9201550C440B550BC501B40173
:100EA0000E94BC07215031093093030220930202B3
:100EB0007894C601865991098B33974090F4F89441
:100EC000CC0CDD1C9601DD0C440B550BC501B401A7
:100ED0000E94BC0721503109309301022093000287
:100EE0007894CE0107960E94C9030E944D033FCF1C
:100EF00086EC92E00E94C9038CEC92E00C94C9034A
:100F00001F93FC0199278827BC01E89411911032A6
:100F1000E9F3193010F01E30C8F31B3251F01D32C6
:100F200049F4689406C00E94A707610F711D811DD6
:100F3000911D119110531A30B0F33EF490958095A5
:100F4000709561957F4F8F4F9F4F1F910895592F37
:100F5000482F372F262F660F771F881F991F660F80
:100F6000771F881F991F620F731F841F951F660FBD
:100F7000771F881F991F0895052E97FB1EF4009474
:100F80000E94D30757FD07D00E94E30707FC03D058
:100F90004EF40C94D30750954095309521953F4FD2
:100FA0004F4F5F4F089590958095709561957F4F55
:100FB0008F4F9F4F0895EE0FFF1F881F8BBF079025
:100FC000F691E02D1994A1E21A2EAA1BBB1BFD017C
:100FD0000DC0AA1FBB1FEE1FFF1FA217B307E40718
:100FE000F50720F0A21BB30BE40BF50B661F771F70
:100FF000881F991F1A9469F7609570958095909550
:101000009B01AC01BD01CF0108950F931F93CF93B6
:10101000DF938230910510F482E090E0E091D402F9
:10102000F091D50230E020E0B0E0A0E0309799F4F4
:101030002115310509F44AC0281B390B243031052C
:10104000D8F58A819B816115710589F1FB01938334
:101050008283FE0111C040815181028113814817B2
:101060005907E0F04817590799F4109761F0129664
:101070000C93129713961C933296CF01DF91CF9168
:101080001F910F9108950093D4021093D502F4CFCD
:101090002115310551F04217530738F0A901DB0142
:1010A0009A01BD01DF01F801C1CFEF01F9CF9093A3
:1010B000D5028093D402CDCFFE01E20FF31F8193BE
:1010C00091932250310939832883D7CF2091D202BE
:1010D0003091D302232B41F4209106023091070274
:1010E0003093D3022093D202209104023091050262
:1010F0002115310541F42DB73EB7409108025091BA
:101100000902241B350BE091D202F091D302E217C1
:10111000F307A0F42E1B3F0B2817390778F0AC011A
:101120004E5F5F4F2417350748F04E0F5F1F5093F7
:10113000D3024093D202819391939FCFF0E0E0E0FD
:101140009CCFCF93DF930097E9F0FC013297138295
:101150001282A091D402B091D502ED0130E020E0DE
:101160001097A1F420813181820F931F2091D20228
:101170003091D3022817390709F061C0F093D302E8
:10118000E093D202DF91CF910895EA01CE17DF07F5
:10119000E8F54A815B819E0141155105B1F7E901EE
:1011A000FB83EA8349915991C40FD51FEC17FD07C2
:1011B00061F4808191810296840F951FE9019983E2
:1011C0008883828193819B838A83F0E0E0E012969A
:1011D0008D919C9113970097B9F52D913C911197A2
:1011E000CD010296820F931F2091D2023091D3023B
:1011F0002817390739F6309751F51092D502109219
:10120000D402B093D302A093D202BCCFD383C283C3
:1012100040815181840F951FC817D90761F44E5F33
:101220005F4F88819981480F591F518340838A817C
:101230009B81938382832115310509F0B0CFF09310
:10124000D502E093D4029ECFFD01DC01C0CF138212
:101250001282D7CF4F925F926F927F928F929F921E
:10126000AF92BF92CF92DF92EF92FF920F931F93B4
:10127000CF93DF938C01009799F4CB01DF91CF914D
:101280001F910F91FF90EF90DF90CF90BF90AF90A4
:101290009F908F907F906F905F904F900C94050877
:1012A000FC01E60FF71F9C0122503109E217F307FA
:1012B00008F4AEC0D901CD91DC911197C617D707BC
:1012C00020F1C530D10578F0CE0104978617970735
:1012D00050F0C61BD70B2297C193D1936D937C938B
:1012E000CF010E94A108C801DF91CF911F910F91FA
:1012F000FF90EF90DF90CF90BF90AF909F908F9036
:101300007F906F905F904F9008955B01AC1ABD0A7B
:101310004C018C0E9D1EA091D402B091D502512C8F
:10132000412CF12CE12C109731F58091D202909153
:10133000D3028815990509F05CC04616570608F0D7
:1013400058C08091040290910502009741F48DB736
:101350009EB74091080250910902841B950BE81733
:10136000F90708F055C0F093D302E093D202F901D7
:1013700071836083B8CF8D919C91119712966C9078
:10138000129713967C901397A815B90559F56C011F
:1013900042E0C40ED11CCA14DB0420F1AC014A198E
:1013A0005B09DA011296159780F06282738251838D
:1013B0004083D9016D937C93E114F10471F0D7015E
:1013C0001396FC93EE9312978ECF22968C0F9D1F4F
:1013D000F90191838083F301EFCFF093D502E0937D
:1013E000D40281CF4816590608F42C017D01D3019F
:1013F0009ACFCB010E9405087C01009749F0AE010D
:10140000B8010E940B0AC8010E94A10887016BCF96
:1014100010E000E068CFFB01DC0102C001900D92FA
:1014200041505040D8F70895FC018191861721F072
:101430008823D9F7992708953197CF010895FB01A3
:10144000DC0101900D920020E1F7089511E0CAE25D
:10145000D1E000E006C0802FFE010E94DB0721964C
:10146000011DCB32D10780E00807A9F7F894FFCF20
:10147000F401F4010000D602800000000000E00248
:0E1480000A0237022D03A80246029A0200005B
:00000001FF
