:100000000C942B010C945C010C945C010C945C012D
:100010000C945C010C945C010C945C010C945C01EC
:100020000C945C010C945C010C945C010C945C01DC
:100030000C945C010C945C010C945C010C945C01CC
:100040000C945C010C94E4050C945C010C945C0130
:100050000C945C010C945C010C945C010C94010503
:100060000C945C010C9475050C944B050C945C018C
:100070000C945C010C945C010C945C010C945C018C
:100080000C94AB050C945C010C945C010C945C0129
:100090000C945C010C945C010C945C010C945C016C
:1000A0000C945C010C945C010C945C010C945C015C
:1000B0000C945C010C945C010C945C010C945C014C
:1000C0000C945C010C945C010C945C010C945C013C
:1000D0000C945C010C945C010C945C010C945C012C
:1000E0000C945C010C940A020C94E0020C944602FD
:1000F0000C94C4010C94F1010C949A020C94EB0141
:100100000C94C8010C9437020C941D080C94030243
:100110000C94E3010C94DD010C94D9010C94D301EF
:100120000C94CC010C94F5010C94E7010C94A802FA
:100130000C942D030C94F9010C94B2010C94AD01B4
:100140000C941D060C94FF010C94D00100000A0BC6
:1001500002090C0D0E080703040100000000000056
:10016000000000000000000000000000000000008F
:10017000000000000000000012111000000000004C
:10018000000000000000000000000000000000006F
:10019000000000002200250028002B002E00310066
:1001A000340002010000050108010B0100002100DC
:1001B000240027002A002D00300033000101000038
:1001C000040107010A0105050505070508080808D7
:1001D000020202020A0A08080404040401010101DF
:1001E00001010101030303030303030304070707DA
:1001F0000C0C0C0C0C0C0C0C02020202060606067F
:10020000060606060B0B0B0B0B0B0B0B010210204B
:10021000200808102040102040800201020108043C
:1002200002010102040810204080804020100804D0
:100230000201800402018040201008040201080429
:10024000020101020408102040800102040810206D
:1002500040801D061D0811241FBECFEFD1E2DEBF76
:10026000CDBF00E00CBF22E0A2E4B2E001C01D92CD
:10027000AA3FB207E1F712E0A0E0B2E0EAEBF5E155
:1002800000E00BBF02C007900D92A234B107D9F76E
:1002900011E0CAE2D1E000E006C021970109802FF9
:1002A000FE010E94A208C932D10780E00807A9F721
:1002B0000E945F060C94CB0A0C94000090E0FC01B5
:1002C000E45FFD4F24918A539E4FFC018491882363
:1002D00099F090E0880F991FFC01E455FE4FA5911D
:1002E000B491FC01EE56FE4F859194918FB7F8942E
:1002F000EC91E22BEC938FBF0895282F30E0F901A9
:10030000E45BFE4F9491F901E45FFD4F44912A5361
:100310003E4FF9012491222309F435C0992311F1AC
:1003200091509231F8F4E92FF0E08827E556FE4F1E
:100330008F4F0C94A208CC01D001AD01C401C801BB
:10034000B201D301D901DD01E301E701EB01F101C4
:10035000F501B201F901FF010302809180008F775E
:1003600080938000E22FF0E0EE0FFF1FEE56FE4F6D
:10037000A591B4918FB7F894EC91611148C0409564
:100380004E234C938FBF0895809180008F7DE8CFDE
:1003900080918000877FE4CF84B58F7784BDE2CFE2
:1003A00084B58F7DFBCF8091B0008F778093B000B4
:1003B000D9CF8091B0008F7DF9CF809190008F7759
:1003C00080939000CFCF809190008F7DF9CF809166
:1003D0009000877FF5CF8091A0008F778093A00059
:1003E000C1CF8091A0008F7DF9CF8091A000877F41
:1003F000F5CF809120018F7780932001B3CF80913A
:1004000020018F7DF9CF80912001877FF5CF4E2B82
:10041000B8CF0895AF92BF92CF92DF92EF92FF9242
:100420000F931F93CF93DF936C017B018B01040F1C
:10043000151FEB015E01AE18BF08C017D10759F0B8
:100440006991D601ED91FC910190F081E02DC601FA
:100450001995892B79F7C501DF91CF911F910F91E4
:10046000FF90EF90DF90CF90BF90AF900895FC0188
:10047000538D448D252F30E0842F90E0821B930B09
:10048000541710F0CF96089501970895FC01918DAF
:10049000828D981761F0A28DAE0FBF2FB11D5D96B2
:1004A0008C91928D9F5F9F73928F90E008958FEF54
:1004B0009FEF08952FB7F8948091490290914A02D6
:1004C000A0914B02B0914C022FBF809355029093A4
:1004D0005602A0935702B09358028DE492E00E9416
:1004E000460297FF26C02FB7F89480914902909159
:1004F0004A02A0914B02B0914C022FBF409155028D
:10050000509156026091570270915802841B950BCE
:10051000A60BB70B409151025091520260915302C9
:100520007091540284179507A607B707B0F28FEFB2
:100530009FEF0895FC01918D828D981731F0828D87
:10054000E80FF11D858D90E008958FEF9FEF0895DE
:10055000FC01918D228D892F90E0805C9F4F821B42
:1005600091098F73992708958DE492E00E94A80263
:1005700021E0892B09F420E0822F0895FC01A48D4D
:10058000A80FB92FB11DA35ABF4F2C91848D90E0B5
:1005900001968F739927848FA689B7892C93A08998
:1005A000B1898C91837080648C93938D848D981322
:1005B00006C00288F389E02D80818F7D80830895B5
:1005C000EF92FF920F931F93CF93DF93EC0181E0A3
:1005D000888F9B8D8C8D98131AC0E889F98980814A
:1005E00085FF15C09FB7F894EE89FF896083E8897D
:1005F000F98980818370806480839FBF81E090E06F
:10060000DF91CF911F910F91FF90EF900895F62EFB
:100610000B8D10E00F5F1F4F0F731127E02E8C8D95
:100620008E110CC00FB607FCFACFE889F9898081DA
:1006300085FFF5CFCE010E94BE02F1CFEB8DEC0F0E
:10064000FD2FF11DE35AFF4FF0829FB7F8940B8FF7
:10065000EA89FB8980818062CFCFCF93DF93EC0161
:10066000888D8823B9F0AA89BB89E889F9898C919A
:1006700085FD03C0808186FD0DC00FB607FCF7CF56
:100680008C9185FFF2CF808185FFEDCFCE010E9456
:10069000BE02E9CFDF91CF91089580E090E0892BF1
:1006A00029F00E94B40281110E94000080E090E0D5
:1006B000892B49F080E090E0892B29F00E9400000E
:1006C00081110E94000080E090E0892B49F080E0D9
:1006D00090E0892B29F00E94000081110E94000007
:1006E00080E090E0892B49F080E090E0892B29F0B0
:1006F0000E94000081110C9400000895FC010190FB
:100700000020E9F73197AF01481B590BBC018DE47C
:1007100092E00C940A028F929F92AF92BF92CF9276
:10072000DF92EF92FF920F931F93CF93DF93CDB79A
:10073000DEB7A1970FB6F894DEBF0FBECDBF6C0138
:10074000990FEE08FF08F7FE41C06DE28DE492E0DC
:100750000E94E0028C0122273327A9012C193D09B0
:100760004E095F0919A2CE0181967C019AE0892E7B
:10077000912CA12CB12CCA01B901A50194010E94B0
:100780006108605DF70162937F0121153105410524
:10079000510589F790E080E0309719F0CF010E9471
:1007A0007E03800F911FA1960FB6F894DEBF0FBE97
:1007B000CDBFDF91CF911F910F91FF90EF90DF9010
:1007C000CF90BF90AF909F908F900895A701960112
:1007D00019A28E010F5D1F4F8AE0C82ED12CE12C8B
:1007E000F12CCA01B901A70196010E946108605D60
:1007F000F80162938F01211531054105510589F7F3
:1008000090E080E0309779F2CF010E947E03CBCF59
:100810000F931F93CF93DF938C01EB01FC01808139
:1008200091810097E1F06881798161157105A9F0E6
:10083000428153812C813D814217530770F00E9401
:10084000C40A8C819D81F801958384831D821C825A
:10085000DF91CF911F910F9108950E9446098881E1
:100860009981F801918380838A819B81938382831C
:100870008C819D8195838483198218821B821A82C0
:10088000E5CFCF93DF93EC0188819981009711F038
:100890000E944609198218821D821C821B821A82BC
:1008A000DF91CF910895FC0180819181009711F033
:1008B0000C94460908950F931F93CF93DF93EC0197
:1008C00088819981009759F02A813B812617370743
:1008D00030F081E0DF91CF911F910F9108958B014E
:1008E0006F5F7F4F0E94CF09009759F099838883EB
:1008F0001B830A832C813D81232B59F7FC01108235
:10090000E8CF80E0E7CFCF93DF93EC0170E060E0C9
:100910000E945B04811105C0CE01DF91CF910C9440
:1009200041041D821C8260E472E088819981DF911C
:10093000CF910C94C40A9F92AF92BF92CF92DF9254
:10094000EF92FF920F931F93CF93DF93EC016B0114
:100950005A0179012417350720F48B2D5901E42E13
:10096000F82E198218821B821A821D821C82CE01E7
:100970000E948304D60114960D911C91A016B10615
:1009800058F5E016F10608F48701D601ED91FC91C7
:100990001197E00FF11F90801082ED90FC90EA0C0F
:1009A000FB1CE114F10471F0F70101900020E9F75C
:1009B00031975F01AE18BF08B501CE010E945B04FC
:1009C000811117C0CE010E944104F60180819181FE
:1009D000080F191FD8019C92CE01DF91CF911F9172
:1009E0000F91FF90EF90DF90CF90BF90AF909F90CE
:1009F0000895BD82AC82B701888199810E94C40AA2
:100A0000E4CF1F920F920FB60F9211242F933F93B2
:100A10008F939F93AF93BF938091490290914A0225
:100A2000A0914B02B0914C023091480223E0230F79
:100A30002D3758F50196A11DB11D209348028093D2
:100A4000490290934A02A0934B02B0934C028091CA
:100A5000440290914502A0914602B091470201964E
:100A6000A11DB11D8093440290934502A0934602BC
:100A7000B0934702BF91AF919F918F913F912F917A
:100A80000F900FBE0F901F90189526E8230F029627
:100A9000A11DB11DD2CF1F920F920FB60F9211243C
:100AA0000BB60F922F933F934F935F936F937F9368
:100AB0008F939F93AF93BF93EF93FF938DE492E057
:100AC0000E94BE02FF91EF91BF91AF919F918F91D4
:100AD0007F916F915F914F913F912F910F900BBE3E
:100AE0000F900FBE0F901F9018951F920F920FB688
:100AF0000F9211240BB60F922F938F939F93EF9326
:100B0000FF93E0915D02F0915E028081E0916302CB
:100B1000F091640282FD1DC09081809166028F5F1A
:100B20008F7320916702821741F0E0916602F0E036
:100B3000E35BFD4F958F80936602FF91EF919F914C
:100B40008F912F910F900BBE0F900FBE0F901F90A3
:100B500018958081F2CF1F920F920FB60F92112439
:100B60000BB60F922F933F934F935F936F937F93A7
:100B70008F939F93AF93BF93EF93FF938091430223
:100B800091E08927809343026091430285E00E94AF
:100B90007D018091000290910102909399008093D1
:100BA0009800FF91EF91BF91AF919F918F917F91AD
:100BB0006F915F914F913F912F910F900BBE0F90CE
:100BC0000FBE0F901F9018951F920F920FB60F92A5
:100BD00011240BB60F922F933F934F935F936F9314
:100BE0007F938F939F93AF93BF93EF93FF938091E6
:100BF000420291E08927809342026091420289E09B
:100C00000E947D01809102029091030290938900DD
:100C100080938800FF91EF91BF91AF919F918F9149
:100C20007F916F915F914F913F912F910F900BBEEC
:100C30000F900FBE0F901F901895EDE4F2E0138215
:100C4000128288EE93E0A0E0B0E084839583A683CF
:100C5000B7838EE092E09183808385EC90E0958766
:100C6000848784EC90E09787868780EC90E0918B76
:100C7000808B81EC90E0938B828B82EC90E0958B63
:100C8000848B86EC90E0978B868B118E128E138E60
:100C9000148EE0EFF2E0118210821382128215822C
:100CA0001482CF010E948304EAEEF2E011821082E6
:100CB0001382128215821482CF010C948304CF9385
:100CC000DF93CDB7DEB72C970FB6F894DEBF0FBE1B
:100CD000CDBF789484B5826084BD84B5816084BDC5
:100CE00085B5826085BD85B5816085BD80916E00CA
:100CF000816080936E0010928100809181008260FB
:100D00008093810080918100816080938100809137
:100D100080008160809380008091B1008460809326
:100D2000B1008091B00081608093B000809191000B
:100D30008260809391008091910081608093910006
:100D4000809190008160809390008091A1008260EA
:100D50008093A1008091A10081608093A100809187
:100D6000A00081608093A000809121018260809327
:100D700021018091210181608093210180912001D6
:100D800081608093200180917A00846080937A0052
:100D900080917A00826080937A0080917A008160ED
:100DA00080937A0080917A00806880937A00109214
:100DB000C100E0915D02F0915E0282E08083E091EB
:100DC0005902F0915A021082E0915B02F0915C02AC
:100DD00080E1808310926502E0916102F0916202ED
:100DE00086E08083E0915F02F09160028081806103
:100DF0008083E0915F02F09160028081886080834F
:100E0000E0915F02F0916002808180688083E091D0
:100E10005F02F091600280818F7D808389E00E9473
:100E20005E0185E00E945E0183E00E945E0161E058
:100E300083E00E947D01F894109280009AE09093E4
:100E4000810024EF31E03093890020938800809165
:100E50006F00826080936F001092900090939100D9
:100E60003093990020939800809171008260809364
:100E70007100789420E4C22E22E4D22E2FE0E22EDC
:100E8000F12C8DE492E00E94A802181619060CF0CD
:100E9000D1C018861F821A8619861C861B86CE0131
:100EA00007960E9483040E945A020B851C8597FDB9
:100EB0001CC08A309105C9F089831A820F5F1F4FC9
:100EC000B801CE0107960E945B04882361F32F814D
:100ED00038858B859C85BE016F5F7F4F820F931F86
:100EE0000E94C40A1C870B87DECF012BE1F10F8122
:100EF00018856CE270E0C8010E94B90A009799F168
:100F00009C01201B310B89010F3F100761F19801F3
:100F100050E040E0BE01695F7F4FCE0101960E9424
:100F20009B04BE016F5F7F4F80EF92E00E94080438
:100F3000CE0101960E9453042B853C85A8014F5F8A
:100F40005F4FBE01695F7F4FCE0101960E949B04F7
:100F5000BE016F5F7F4F8AEE92E00E940804CE01CF
:100F600001960E9453048091F0029091F102412C6D
:100F7000512C3201009719F00E9425082B01120113
:100F80008091EA029091EB02812C912C5401009700
:100F900019F00E9425084B0184018AE0481A510883
:100FA0002FE7421623E1520688F49101220F331FE6
:100FB000032E000C440B550BC701B6010E94830899
:100FC000215031093093030220930202C4010A9791
:100FD0008F37934188F49801220F331F032E000CA2
:100FE000440B550BC701B6010E94830821503109FB
:100FF00030930102209300028CE192E00E947E0374
:10100000C1010E948B0388E292E00E947E038EE27F
:1010100092E00E947E03C8010E948B038AE392E063
:101020000E947E038EE392E00E947E03CE0107962B
:101030000E9453040E944D0324CF8AEE92E00E9446
:10104000530480EF92E00C9453041F93FC01992702
:101050008827BC01E89411911032E9F3193010F09F
:101060001E30C8F31B3251F01D3249F4689406C09B
:101070000E944C08610F711D811D911D119110532B
:101080001A30B0F33EF490958095709561957F4F3E
:101090008F4F9F4F1F910895592F482F372F262F7D
:1010A000660F771F881F991F660F771F881F991F6C
:1010B000620F731F841F951F660F771F881F991F6C
:1010C0000895A1E21A2EAA1BBB1BFD010DC0AA1F89
:1010D000BB1FEE1FFF1FA217B307E407F50720F0A1
:1010E000A21BB30BE40BF50B661F771F881F991F1C
:1010F0001A9469F760957095809590959B01AC0165
:10110000BD01CF010895052E97FB1EF400940E94A7
:101110009A0857FD07D00E94610807FC03D04EF4DF
:101120000C949A0850954095309521953F4F4F4F1C
:101130005F4F089590958095709561957F4F8F4F83
:101140009F4F0895EE0FFF1F881F8BBF0790F691EA
:10115000E02D19940F931F93CF93DF938230910565
:1011600010F482E090E0E091F802F091F90230E0B2
:1011700020E0B0E0A0E0309799F42115310509F4A2
:101180004AC0281B390B24303105D8F58A819B8150
:101190006115710589F1FB0193838283FE0111C002
:1011A000408151810281138148175907E0F04817A7
:1011B000590799F4109761F012960C9312971396B1
:1011C0001C933296CF01DF91CF911F910F9108951B
:1011D0000093F8021093F902F4CF2115310551F074
:1011E0004217530738F0A901DB019A01BD01DF0165
:1011F000F801C1CFEF01F9CF9093F9028093F80283
:10120000CDCFFE01E20FF31F81939193225031095C
:1012100039832883D7CF2091F6023091F702232B10
:1012200041F420910602309107023093F702209397
:10123000F60220910402309105022115310541F496
:101240002DB73EB74091080250910902241B350B7F
:10125000E091F602F091F702E217F307A0F42E1BDB
:101260003F0B2817390778F0AC014E5F5F4F24170A
:10127000350748F04E0F5F1F5093F7024093F60278
:10128000819391939FCFF0E0E0E09CCFCF93DF93E9
:101290000097E9F0FC01329713821282A091F802C4
:1012A000B091F902ED0130E020E01097A1F4208127
:1012B0003181820F931F2091F6023091F702281797
:1012C000390709F061C0F093F702E093F602DF916D
:1012D000CF910895EA01CE17DF07E8F54A815B81D7
:1012E0009E0141155105B1F7E901FB83EA8349915C
:1012F0005991C40FD51FEC17FD0761F480819181CE
:101300000296840F951FE9019983888382819381D6
:101310009B838A83F0E0E0E012968D919C91139775
:101320000097B9F52D913C911197CD010296820F4E
:10133000931F2091F6023091F7022817390739F6EA
:10134000309751F51092F9021092F802B093F7021B
:10135000A093F602BCCFD383C28340815181840F16
:10136000951FC817D90761F44E5F5F4F8881998137
:10137000480F591F518340838A819B8193838283C5
:101380002115310509F0B0CFF093F902E093F8028E
:101390009ECFFD01DC01C0CF13821282D7CF4F92C6
:1013A0005F926F927F928F929F92AF92BF92CF92F5
:1013B000DF92EF92FF920F931F93CF93DF938C01F5
:1013C000009799F4CB01DF91CF911F910F91FF907E
:1013D000EF90DF90CF90BF90AF909F908F907F90D5
:1013E0006F905F904F900C94AA08FC01E60FF71FD6
:1013F0009C0122503109E217F30708F4AEC0D9016D
:10140000CD91DC911197C617D70720F1C530D105D2
:1014100078F0CE0104978617970750F0C61BD70BBC
:101420002297C193D1936D937C93CF010E9446097B
:10143000C801DF91CF911F910F91FF90EF90DF9046
:10144000CF90BF90AF909F908F907F906F905F9064
:101450004F9008955B01AC1ABD0A4C018C0E9D1E85
:10146000A091F802B091F902512C412CF12CE12C01
:10147000109731F58091F6029091F7028815990541
:1014800009F05CC04616570608F058C08091040267
:1014900090910502009741F48DB79EB740910802E4
:1014A00050910902841B950BE817F90708F055C005
:1014B000F093F702E093F602F90171836083B8CFED
:1014C0008D919C91119712966C90129713967C9027
:1014D0001397A815B90559F56C0142E0C40ED11C4B
:1014E000CA14DB0420F1AC014A195B09DA01129637
:1014F000159780F06282738251834083D9016D9386
:101500007C93E114F10471F0D7011396FC93EE93F0
:1015100012978ECF22968C0F9D1FF90191838083A5
:10152000F301EFCFF093F902E093F80281CF481670
:10153000590608F42C017D01D3019ACFCB010E94FA
:10154000AA087C01009749F0AE01B8010E94B00AD8
:10155000C8010E94460987016BCF10E000E068CF08
:10156000FB01DC0102C001900D9241505040D8F7C0
:101570000895FC018191861721F08823D9F79927D6
:1015800008953197CF010895FB01DC0101900D9280
:101590000020E1F7089511E0CAE2D1E000E006C0C2
:1015A000802FFE010E94A2082196011DCB32D10797
:0A15B00080E00807A9F7F894FFCFC8
:1015BA00F401F4010000FA02800000000000E002D9
:1015CA000A0237022D03A80246029A0253657420C2
:1015DA0046726571313A200020487A2C2000536502
:1015EA00742046726571323A200020487A000D0A4A
:0215FA000000EF
:00000001FF
