:100000000C9428010C9459010C9459010C94590139
:100010000C9459010C9459010C9459010C945901F8
:100020000C9459010C9459010C9459010C945901E8
:100030000C9459010C9459010C9459010C945901D8
:100040000C9459010C94A6040C9459010C94590178
:100050000C9459010C9459010C9459010C94C3034C
:100060000C9459010C9437040C940D040C94590110
:100070000C9459010C9459010C9459010C94590198
:100080000C946D040C9459010C9459010C94590171
:100090000C9459010C9459010C9459010C94590178
:1000A0000C9459010C9459010C9459010C94590168
:1000B0000C9459010C9459010C9459010C94590158
:1000C0000C9459010C9459010C9459010C94590148
:1000D0000C9459010C9459010C9459010C94590138
:1000E0000C9459010C9400020C94E4010C94DA0174
:1000F0000C94AF010C94CD010C94E8010C94F20126
:100100000C94EE010C94D6010C94F6010C94430669
:100110000C94D0010C94C5010C94AA010C94E0013C
:100120000C946D020C94FC010C9459020C94C101C6
:100130000C94B3020C944A020C9400030C941D021C
:100140000C94C9010C947B0200000A0B02090C0DEF
:100150000E0807030401000000000000000000007A
:10016000000000000000000000000000000000008F
:10017000000000001211100000000000000000004C
:10018000000000000000000000000000000000006F
:100190002200250028002B002E003100340002012F
:1001A0000000050108010B010000210024002700C8
:1001B0002A002D0030003300010100000401070176
:1001C0000A010505050507050808080802020202DC
:1001D0000A0A0808040404040101010101010101E3
:1001E0000303030303030303040707070C0C0C0CAE
:1001F0000C0C0C0C02020202060606060606060697
:100200000B0B0B0B0B0B0B0B010210202008081023
:100210002040102040800201020108040201010276
:10022000040810204080804020100804020180044F
:1002300002018040201008040201080402010102AA
:10024000040810204080010204081020408043066A
:1002500011241FBECFEFD1E2DEBFCDBF00E00CBF47
:1002600012E0A0E0B2E0E2EAFDE000E00BBF02C075
:1002700007900D92A433B107D9F722E0A4E3B2E0CE
:1002800001C01D92AC3DB207E1F711E0C8E2D1E038
:1002900000E006C021970109802FFE010E94C006E0
:1002A000C732D10780E00807A9F70E94DF040C9449
:1002B000CF060C94000090E0FC01E85FFD4F249114
:1002C0008E539E4FFC018491882399F090E0880F13
:1002D000991FFC01E855FE4FA591B491FC01E2572E
:1002E000FE4F859194918FB7F894EC91E22BEC93AB
:1002F0008FBF0895282F30E0F901E85BFE4F9491FD
:10030000F901E85FFD4F44912E533E4FF9012491CE
:10031000222309F435C0992311F191509231F8F458
:10032000E92FF0E08827E856FE4F8F4F0C94C00667
:10033000C901CD01AA01C101C501AF01D001D6019A
:10034000DA01E001E401E801EE01F201AF01F6019A
:10035000FC010002809180008F7780938000E22F63
:10036000F0E0EE0FFF1FE257FE4FA591B4918FB75B
:10037000F894EC91611148C040954E234C938FBF87
:100380000895809180008F7DE8CF80918000877FE5
:10039000E4CF84B58F7784BDE2CF84B58F7DFBCF6A
:1003A0008091B0008F778093B000D9CF8091B0005A
:1003B0008F7DF9CF809190008F7780939000CFCF81
:1003C000809190008F7DF9CF80919000877FF5CF4D
:1003D0008091A0008F778093A000C1CF8091A00072
:1003E0008F7DF9CF8091A000877FF5CF809120018C
:1003F0008F7780932001B3CF809120018F7DF9CF3B
:1004000080912001877FF5CF4E2BB8CF90917B0054
:10041000977F90937B008653806480937C008091CB
:100420007A00806480937A0080917A0086FDFCCF08
:1004300080917800909179000895AF92BF92CF9209
:10044000DF92EF92FF920F931F93CF93DF936C0194
:100450007B018B01040F151FEB015E01AE18BF0875
:10046000C017D10759F06991D601ED91FC91019027
:10047000F081E02DC6011995892B79F7C501DF912F
:10048000CF911F910F91FF90EF90DF90CF90BF9091
:10049000AF900895FC01538D448D252F30E0842FBB
:1004A00090E0821B930B541710F0CF96089501979C
:1004B0000895FC01918D828D981761F0A28DAE0F89
:1004C000BF2FB11D5D968C91928D9F5F9F73928F10
:1004D00090E008958FEF9FEF0895FC01918D828D3C
:1004E000981731F0828DE80FF11D858D90E0089509
:1004F0008FEF9FEF0895FC01918D228D892F90E061
:10050000805C9F4F821B91098F73992708958FE319
:1005100092E00E947B0221E0892B09F420E0822FE7
:100520000895FC01A48DA80FB92FB11DA35ABF4F88
:100530002C91848D90E001968F739927848FA689E2
:10054000B7892C93A089B1898C91837080648C9336
:10055000938D848D981306C00288F389E02D8081E5
:100560008F7D80830895EF92FF920F931F93CF9317
:10057000DF93EC0181E0888F9B8D8C8D98131AC0DE
:10058000E889F989808185FF15C09FB7F894EE89C5
:10059000FF896083E889F989808183708064808322
:1005A0009FBF81E090E0DF91CF911F910F91FF906D
:1005B000EF900895F62E0B8D10E00F5F1F4F0F7315
:1005C0001127E02E8C8D8E110CC00FB607FCFACFD0
:1005D000E889F989808185FFF5CFCE010E949102DB
:1005E000F1CFEB8DEC0FFD2FF11DE35AFF4FF082A1
:1005F0009FB7F8940B8FEA89FB8980818062CFCF07
:10060000CF93DF93EC01888D8823B9F0AA89BB8949
:10061000E889F9898C9185FD03C0808186FD0DC034
:100620000FB607FCF7CF8C9185FFF2CF808185FF55
:10063000EDCFCE010E949102E9CFDF91CF910895D5
:1006400080E090E0892B29F00E94870281110E94AE
:10065000000080E090E0892B49F080E090E0892B59
:1006600029F00E94000081110E94000080E090E0CB
:10067000892B49F080E090E0892B29F00E9400004E
:1006800081110E94000080E090E0892B49F080E019
:1006900090E0892B29F00E94000081110C94000049
:1006A0000895FC0101900020E9F73197AF01481B44
:1006B000590BBC018FE392E00C941D028F929F9224
:1006C000AF92BF920F931F93CF93DF93CDB7DEB757
:1006D000A1970FB6F894DEBF0FBECDBF19A242306E
:1006E00008F44AE08E010F5D1F4F842E912CB12C2F
:1006F000A12CA50194010E948F06E62FB901CA0121
:10070000EA30F4F4E05DD801EE938D01232B242B25
:10071000252B79F790E080E0109719F0CD010E9429
:100720005103A1960FB6F894DEBF0FBECDBFDF9187
:10073000CF911F910F91BF90AF909F908F90089590
:10074000E95CE1CFCF92DF92EF92FF92CF93DF93FC
:100750006B017C016DE28FE392E00E94B302EC0139
:1007600066277727CB016C197D098E099F094AE01E
:100770000E945E038C0F9D1FDF91CF91FF90EF9041
:10078000DF90CF9008951F920F920FB60F92112411
:100790002F933F938F939F93AF93BF9380913B028F
:1007A00090913C02A0913D02B0913E0230913A02FC
:1007B00023E0230F2D3758F50196A11DB11D20937D
:1007C0003A0280933B0290933C02A0933D02B09387
:1007D0003E028091360290913702A0913802B0918A
:1007E00039020196A11DB11D809336029093370204
:1007F000A0933802B0933902BF91AF919F918F912E
:100800003F912F910F900FBE0F901F90189526E8E3
:10081000230F0296A11DB11DD2CF1F920F920FB6CA
:100820000F9211240BB60F922F933F934F935F9328
:100830006F937F938F939F93AF93BF93EF93FF93A8
:100840008FE392E00E949102FF91EF91BF91AF91EF
:100850009F918F917F916F915F914F913F912F91D8
:100860000F900BBE0F900FBE0F901F9018951F9208
:100870000F920FB60F9211240BB60F922F938F93F6
:100880009F93EF93FF93E0914F02F091500280818C
:10089000E0915502F091560282FD1DC09081809139
:1008A00058028F5F8F7320915902821741F0E091B7
:1008B0005802F0E0E15CFD4F958F80935802FF9164
:1008C000EF919F918F912F910F900BBE0F900FBEC4
:1008D0000F901F9018958081F2CF1F920F920FB644
:1008E0000F9211240BB60F922F933F934F935F9368
:1008F0006F937F938F939F93AF93BF93EF93FF93E8
:100900008091350291E0892780933502609135020C
:1009100085E00E947A0180910002909101029093FB
:10092000990080939800FF91EF91BF91AF919F91B3
:100930008F917F916F915F914F913F912F910F9088
:100940000BBE0F900FBE0F901F9018951F920F9225
:100950000FB60F9211240BB60F922F933F934F9324
:100960005F936F937F938F939F93AF93BF93EF9317
:10097000FF938091340291E0892780933402609143
:10098000340289E00E947A01809102029091030270
:100990009093890080938800FF91EF91BF91AF9170
:1009A0009F918F917F916F915F914F913F912F9187
:1009B0000F900BBE0F900FBE0F901F901895CF9306
:1009C000DF9300D01F92CDB7DEB7789484B58260F4
:1009D00084BD84B5816084BD85B5826085BD85B5E3
:1009E000816085BD80916E00816080936E00109261
:1009F00081008091810082608093810080918100DC
:100A0000816080938100809180008160809380006C
:100A10008091B10084608093B1008091B0008160CA
:100A20008093B000809191008260809391008091CA
:100A3000910081608093910080919000816080930B
:100A400090008091A10082608093A1008091A1001C
:100A500081608093A1008091A00081608093A000BC
:100A60008091210182608093210180912101816028
:100A700080932101809120018160809320018091E9
:100A80007A00846080937A0080917A0082608093FB
:100A90007A0080917A00816080937A0080917A0058
:100AA000806880937A001092C100E0914F02F0912B
:100AB000500282E08083E0914B02F0914C02108260
:100AC000E0914D02F0914E0280E180831092570236
:100AD000E0915302F091540286E08083E09151024C
:100AE000F0915202808180618083E0915102F09107
:100AF0005202808188608083E0915102F09152021D
:100B0000808180688083E0915102F091520280815F
:100B10008F7D808389E00E945B0185E00E945B01FC
:100B200083E00E945B0161E083E00E947A01F89417
:100B3000109280009AE09093810024EF31E030938E
:100B400089002093880080916F00826080936F00FD
:100B50001092900090939100309399002093980008
:100B600080917100826080937100789488248A94C7
:100B700023E0922EA12CB12C30E4432E32E4532EEC
:100B80003FE0632E712C86E30E9406027C0187E31E
:100B90000E9406029A8389832EE733E1D7010E94DF
:100BA000C806A50194010E94700669017A018AE0D5
:100BB000C80ED11CE11CF11C2EE733E1A981BA81DA
:100BC0000E94C806A50194010E947006DA01C901BD
:100BD0000A96A11DB11D89839A83AB83BC839601BC
:100BE000220F331F032E000C440B550BC301B2011F
:100BF0000E947006215031093093030220930202B3
:100C000029813A81220F331F032E000C440B550B10
:100C1000C301B2010E9470062150310930930102D4
:100C20002093000286E192E00E945103B601DD0CA0
:100C3000880B990B97FF1FC00E94A2038EE192E0E0
:100C40000E94510384E292E00E945103A981BA817B
:100C5000BD01BB0F880B990B97FF11C00E94A20327
:100C60008CE292E00E94510380E392E00E945103E3
:100C70000E94200388CF4AE00E945E03DFCF4AE053
:100C80000E945E03EDCFEFE3F2E01382128288EE62
:100C900093E0A0E0B0E084839583A683B78388E0E7
:100CA00092E09183808385EC90E09587848784EC43
:100CB00090E09787868780EC90E0918B808B81EC29
:100CC00090E0938B828B82EC90E0958B848B86EC0A
:100CD00090E0978B868B118E128E138E148E089552
:100CE000052E97FB1EF400940E94870657FD07D03F
:100CF0000E948F0607FC03D04EF40C948706509593
:100D00004095309521953F4F4F4F5F4F08959095F7
:100D10008095709561957F4F8F4F9F4F0895A1E209
:100D20001A2EAA1BBB1BFD010DC0AA1FBB1FEE1F65
:100D3000FF1FA217B307E407F50720F0A21BB30BB0
:100D4000E40BF50B661F771F881F991F1A9469F72C
:100D500060957095809590959B01AC01BD01CF0188
:100D60000895A29FB001B39FC001A39F700D811D84
:100D70001124911DB29F700D811D1124911D0895A4
:100D8000EE0FFF1F881F8BBF0790F691E02D19947F
:100D90000E94B106B7FF0895821B930B0895F89443
:020DA000FFCF83
:100DA200F401F40100000000B3021D024A02000334
:100DB2007B0259026D0246726571313A2000204869
:100DC2007A2C200046726571323A200020487A005F
:040DD2000D0A000006
:00000001FF
